{
  "transactions": [
    {
      "hash": "0xf464ca32e623427f9b87a6d7b2ab7eb01f61f34f601f7774a1ae88172a4ee3bd",
      "transactionType": "CALL",
      "contractName": null,
      "contractAddress": "0xe233ab71bac656546bd537c0dfe23d7f38be44aa",
      "function": "changeController(uint8,bytes32,bytes32,address)",
      "arguments": [
        "28",
        "0x1932cb842d3e27f54f79f7be0289437381ba2410fdefbae36850bee9c41e3b91",
        "0x87b7639b5f24e93bf106794133370f950d5e9b00f5b5c8cbd866a487529b814f",
        "0x0000000000000000000000000000000000000000"
      ],
      "transaction": {
        "from": "0x38c5479620f6c2f29677f04d89e356cf6e75cfde",
        "to": "0xe233ab71bac656546bd537c0dfe23d7f38be44aa",
        "gas": "0x1230a",
        "value": "0x0",
        "input": "0x3e8cd570000000000000000000000000000000000000000000000000000000000000001c1932cb842d3e27f54f79f7be0289437381ba2410fdefbae36850bee9c41e3b9187b7639b5f24e93bf106794133370f950d5e9b00f5b5c8cbd866a487529b814f0000000000000000000000000000000000000000000000000000000000000000",
        "nonce": "0x17d",
        "chainId": "0xaa36a7"
      },
      "additionalContracts": [],
      "isFixedGasLimit": false
    },
    {
      "hash": "0x092c193a5815c91c9cfd47047f76d6a3d3fc7d1d3c582761950bf52e9c733322",
      "transactionType": "CALL",
      "contractName": null,
      "contractAddress": "0xe233ab71bac656546bd537c0dfe23d7f38be44aa",
      "function": "open(uint8,bytes32,bytes32)",
      "arguments": [
        "1",
        "0x1932cb842d3e27f54f79f7be0289437381ba2410fdefbae36850bee9c41e3b92",
        "0x78489c64a0db16c40ef986beccc8f069ad5041e5b992d76fe76bba057d9abff2"
      ],
      "transaction": {
        "from": "0x38c5479620f6c2f29677f04d89e356cf6e75cfde",
        "to": "0xe233ab71bac656546bd537c0dfe23d7f38be44aa",
        "gas": "0x11b5c",
        "value": "0x0",
        "input": "0x259aa24000000000000000000000000000000000000000000000000000000000000000011932cb842d3e27f54f79f7be0289437381ba2410fdefbae36850bee9c41e3b9278489c64a0db16c40ef986beccc8f069ad5041e5b992d76fe76bba057d9abff2",
        "nonce": "0x17e",
        "chainId": "0xaa36a7"
      },
      "additionalContracts": [],
      "isFixedGasLimit": false
    }
  ],
  "receipts": [
    {
      "status": "0x1",
      "cumulativeGasUsed": "0x6a4ae2",
      "logs": [
        {
          "address": "0xe233ab71bac656546bd537c0dfe23d7f38be44aa",
          "topics": [
            "0x8cf1cbc25758c16f47e27029c8104e5be712c49e9baaf12c1fd697a91b431680",
            "0x0000000000000000000000000000000000000000000000000000000000000000"
          ],
          "data": "0x0000000000000000000000000000000000000000000000000000000067368ba0",
          "blockHash": "0x53a3a71930cb613246b701841cf548d1d1c0c2285a4e3caf9e323b1a8b78c04f",
          "blockNumber": "0x6c021a",
          "transactionHash": "0xf464ca32e623427f9b87a6d7b2ab7eb01f61f34f601f7774a1ae88172a4ee3bd",
          "transactionIndex": "0x3b",
          "logIndex": "0x46",
          "removed": false
        }
      ],
      "logsBloom": "0x00000000000000000000000000000000000000000000000000000000000000000000000000000000000000000000000000000000000000000000000000000010000000000000000000000000000000000000000000200000000000000000000000000000020020001000000000000800000000000000000000000000000000000000000000000000000000000000000000000000000000000000000000000000000000000000000000000000000000000000000000000000000000000000000000000000000000000000000000000000000000000000000000000000000020000000000000000800000000000000000000000000000000008000000000000000",
      "type": "0x2",
      "transactionHash": "0xf464ca32e623427f9b87a6d7b2ab7eb01f61f34f601f7774a1ae88172a4ee3bd",
      "transactionIndex": "0x3b",
      "blockHash": "0x53a3a71930cb613246b701841cf548d1d1c0c2285a4e3caf9e323b1a8b78c04f",
      "blockNumber": "0x6c021a",
      "gasUsed": "0xc701",
      "effectiveGasPrice": "0x98148",
      "from": "0x38c5479620f6c2f29677f04d89e356cf6e75cfde",
      "to": "0xe233ab71bac656546bd537c0dfe23d7f38be44aa",
      "contractAddress": null
    },
    {
      "status": "0x1",
      "cumulativeGasUsed": "0x6b1808",
      "logs": [
        {
          "address": "0xe233ab71bac656546bd537c0dfe23d7f38be44aa",
          "topics": [
            "0x50042401acb675fedd6dd939fccc629832ce60fa4185df25c01b20e8def195bf",
            "0x0000000000000000000000000000000000000000000000000000000000000000"
          ],
          "data": "0x0000000000000000000000000000000000000000000000000000000067368ba0",
          "blockHash": "0x53a3a71930cb613246b701841cf548d1d1c0c2285a4e3caf9e323b1a8b78c04f",
          "blockNumber": "0x6c021a",
          "transactionHash": "0x092c193a5815c91c9cfd47047f76d6a3d3fc7d1d3c582761950bf52e9c733322",
          "transactionIndex": "0x3c",
          "logIndex": "0x47",
          "removed": false
        }
      ],
      "logsBloom": "0x00000000000000001000000000000000000000000000000000000000000000000000000000200000000000000000000000000000000000000000000000000010000000000000000000000000000000000000000000000000000000000000000000000000020020000000000000000800000000000000000000000000000000000000000000000000000000000000000000000000000000000000000000008000000000000000000000000000000000000000000000000000000000000000000000000000000000000000000000000000000000000000000000000000000020000000000000000000000000000000000000000000000000008000000000000000",
      "type": "0x2",
      "transactionHash": "0x092c193a5815c91c9cfd47047f76d6a3d3fc7d1d3c582761950bf52e9c733322",
      "transactionIndex": "0x3c",
      "blockHash": "0x53a3a71930cb613246b701841cf548d1d1c0c2285a4e3caf9e323b1a8b78c04f",
      "blockNumber": "0x6c021a",
      "gasUsed": "0xcd26",
      "effectiveGasPrice": "0x98148",
      "from": "0x38c5479620f6c2f29677f04d89e356cf6e75cfde",
      "to": "0xe233ab71bac656546bd537c0dfe23d7f38be44aa",
      "contractAddress": null
    }
  ],
  "libraries": [],
  "pending": [],
  "returns": {},
  "timestamp": 1731627939,
  "chain": 11155111,
  "commit": "43f453b"
}