{
  "transactions": [
    {
      "hash": "0x8a68e5a41b8ec968adbe5ecf834ca11d2984e474c5508feb8e484977c1f02195",
      "transactionType": "CALL",
      "contractName": null,
      "contractAddress": "0x8e75dc2cd168f6e1688e16a37a86837015415dd7",
      "function": "changeController(uint8,bytes32,bytes32,address)",
      "arguments": [
        "28",
        "0x1932cb842d3e27f54f79f7be0289437381ba2410fdefbae36850bee9c41e3b91",
        "0x87b7639b5f24e93bf106794133370f950d5e9b00f5b5c8cbd866a487529b814f",
        "0x0000000000000000000000000000000000000000"
      ],
      "transaction": {
        "from": "0x38c5479620f6c2f29677f04d89e356cf6e75cfde",
        "to": "0x8e75dc2cd168f6e1688e16a37a86837015415dd7",
        "gas": "0x1230a",
        "value": "0x0",
        "input": "0x3e8cd570000000000000000000000000000000000000000000000000000000000000001c1932cb842d3e27f54f79f7be0289437381ba2410fdefbae36850bee9c41e3b9187b7639b5f24e93bf106794133370f950d5e9b00f5b5c8cbd866a487529b814f0000000000000000000000000000000000000000000000000000000000000000",
        "nonce": "0x17a",
        "chainId": "0xaa36a7"
      },
      "additionalContracts": [],
      "isFixedGasLimit": false
    }
  ],
  "receipts": [
    {
      "status": "0x1",
      "cumulativeGasUsed": "0xeb575f",
      "logs": [
        {
          "address": "0x8e75dc2cd168f6e1688e16a37a86837015415dd7",
          "topics": [
            "0x8cf1cbc25758c16f47e27029c8104e5be712c49e9baaf12c1fd697a91b431680",
            "0x0000000000000000000000000000000000000000000000000000000000000000"
          ],
          "data": "0x0000000000000000000000000000000000000000000000000000000067368804",
          "blockHash": "0x2943ec1beb818ec0c7639574431332c735a19ed67c4183ed6caa63b7bc7c798b",
          "blockNumber": "0x6c01d2",
          "transactionHash": "0x8a68e5a41b8ec968adbe5ecf834ca11d2984e474c5508feb8e484977c1f02195",
          "transactionIndex": "0x5b",
          "logIndex": "0x93",
          "removed": false
        }
      ],
      "logsBloom": "0x00000100000000000000000000000000000000000000000000000000000000000000000000000000000000000000000000000000000000000000000000000000000000000000000000000000000000000000000000200000000000000000000000000000020000001010000000000800000008000000000000000000000000000000000000000000000000000000000000000000000000000000000000000000000000000000000000000000000000000000000000000000000000000000000000000000000000000000000000000000000000000000000000000000000020000000000000000800000000000000000000000000000000000000000000000000",
      "type": "0x2",
      "transactionHash": "0x8a68e5a41b8ec968adbe5ecf834ca11d2984e474c5508feb8e484977c1f02195",
      "transactionIndex": "0x5b",
      "blockHash": "0x2943ec1beb818ec0c7639574431332c735a19ed67c4183ed6caa63b7bc7c798b",
      "blockNumber": "0x6c01d2",
      "gasUsed": "0xc701",
      "effectiveGasPrice": "0x1e327c",
      "from": "0x38c5479620f6c2f29677f04d89e356cf6e75cfde",
      "to": "0x8e75dc2cd168f6e1688e16a37a86837015415dd7",
      "contractAddress": null
    }
  ],
  "libraries": [],
  "pending": [],
  "returns": {},
  "timestamp": 1731627017,
  "chain": 11155111,
  "commit": "43f453b"
}